:100000000C94A3000C9478080C949F080C94CB00DB
:100010000C94CB000C94CB000C94CB000C94CB0034
:100020000C94CB000C94CB000C94CB000C94CB0024
:100030000C94CB000C94CB000C94CB000C94CB0014
:100040000C94C6080C94CB000C94A80B0C94DA0BFF
:100050000C94CB000C94CB000C94CB000C94CB00F4
:100060000C94CB000C94CB00234572726F723A4211
:10007000726F61646361737400234572726F723AC8
:100080004E6F744D794164647265737300234572D9
:10009000726F723A4352430041636B3A3078004EBC
:1000A0006F00426164496E7075744352430023527D
:1000B000656164790023467265713A002347726F67
:1000C00075703A00234E6F64653A0023566572736B
:1000D000696F6E3A417072203131203230313640D2
:1000E00032303A32303A3139000000000800020163
:1000F00000000304070000000000000000010204EB
:100100000810204080010204081020010204081099
:100110002004040404040404040202020202020390
:10012000030303030300000000230026002900004E
:10013000000000250028002B0000000000240027FC
:10014000002A00000A0C11241FBECFEFD8E0DEBF4A
:10015000CDBF11E0A0E0B1E0EAEFFBE102C0059005
:100160000D92AA38B107D9F723E0AAE8B1E001C09F
:100170001D92AD39B207E1F711E0C6E4D1E004C049
:100180002297FE010E94EE0DC434D107C9F70E94E8
:10019000BA0D0C94FB0D0C940000CF93C82F61E0B6
:1001A00085E00E94CB096C2F85E0CF910C94040A66
:1001B0007F928F929F92AF92BF92CF92DF92EF92F7
:1001C000FF920F931F93CF93DF93782EEB016A0179
:1001D000490161E00E94CB0900E010E0EE24D7FC69
:1001E000E094FE2CAA2497FCA094BA2C0C171D07AF
:1001F0001CF561E0872D0E94040AC701B6010E9428
:100200003F0960E0872D0E94040AC701B6010E94E1
:100210003F0961E0872D0E94040AC701B6010E94D0
:100220003F0960E0872D0E94040AC501B4010E94C5
:100230003F090F5F1F4FDACFDF91CF911F910F91D1
:10024000FF90EF90DF90CF90BF90AF909F908F90F6
:100250007F900895DC01FB018081869586958C93C3
:1002600090819370818182958F7020E1929F800DA3
:10027000112411968C93119781818F70880F880FAC
:1002800092819295969596959370890F12968C937C
:10029000129782818F7313968C930895DC01FB0172
:1002A0008181807382958F709081990F990F890F4A
:1002B0008C9382818C7386958695918120E1929FA3
:1002C000800D112411968C9311979281838120E4E3
:1002D000929F800D112412968C9308958F929F9275
:1002E000AF92BF92CF92DF92EF92FF920F931F9344
:1002F000CF93DF93CDB7DEB727970FB6F894DEBF65
:100300000FBECDBF7C015A016B01A60EB71E00E0E7
:1003100010E020E030E04E0185E0880E911CCA1408
:10032000DB0439F1C9010196D6014D916D01F4014B
:10033000E20FF31F408383309105C9F4B401CE016D
:1003400001960E942A01FE013196C701800F911F7C
:10035000A191B0E0A95DBE4F2C91DC012D93CD01A0
:10036000E815F905A9F70C5F1F4F80E090E09C01AC
:10037000D6CF69012115310509F443C02330310579
:1003800054F4E5E0F0E0EC0FFD1FE20FF31F1082E4
:100390002F5F3F4FF3CFBE016B5F7F4FFE01319662
:1003A0005F01CF010E942A01F501C701800F911F53
:1003B000A191B0E0A95DBE4F2C91DC012D93CD0140
:1003C0009F012A193B09C216D30694F70F5F1F4FEE
:1003D000C601D7FE02C080E090E0080F191FF701A8
:1003E000E00FF11FCE18DF08C01AD10A2DE38F01EC
:1003F0000E191F09C6018E0F9F1F039714F4219336
:10040000F6CFF701E00FF11F1082C80127960FB653
:10041000F894DEBF0FBECDBFDF91CF911F910F913A
:10042000FF90EF90DF90CF90BF90AF909F908F9014
:1004300008959FEB980F9A31B0F09FE9980F9A3189
:1004400010F48754089590ED980F9A3010F48C5F53
:1004500008958B3221F08F3221F48FE308958EE3DB
:1004600008958FEF0895892F08954F925F926F92AC
:100470007F928F929F92AF92BF92CF92DF92EF9234
:10048000FF920F931F93CF93DF93CDB7DEB72797DC
:100490000FB6F894DEBF0FBECDBF6C015A017B01D1
:1004A000A60EB71E00E010E080E090E03E0125E0DF
:1004B000620E711C4E01E8E08E0E911CEA14FB04E2
:1004C00029F0F70141917F014D3329F478015C0156
:1004D000009781F565C09C012F5F3F4FE1E0F0E0A0
:1004E000EC0FFD1FE80FF91F40832430310501F5A3
:1004F000CE0101962C01F20180810E941902F201C5
:1005000081932F01E615F705B1F7BE016F5F7F4FAD
:10051000C3010E944E01F301D601A00FB11F8191CA
:100520008D93E815F905D9F70D5F1F4F20E030E0F6
:10053000C901C4CF843091054CF4E1E0F0E0EC0F48
:10054000FD1FE80FF91F10820196F4CFCE0101962E
:100550004C013E0195E0690E711CF40180810E94FE
:100560001902F40181934F01E615F705B1F7BE01B9
:100570006F5F7F4FCF010E944E01D401F601E00F63
:10058000F11F80E090E021E0A21AB1088C010E0D6D
:100590001F1D8A159B0524F42D9121930196F6CFFA
:1005A000F601E00FF11F1082C80127960FB6F894EC
:1005B000DEBF0FBECDBFDF91CF911F910F91FF9096
:1005C000EF90DF90CF90BF90AF909F908F907F90F3
:1005D0006F905F904F900895E9E9F1E01082F093F9
:1005E0009801E09397011092960108952AEF30E068
:1005F0004FEA50E065E070E085E00E94D80080E0BE
:100600000E94CD0026E040E056E960E070E080E026
:1006100093E00E94460B6BEC70E080E093E00E9458
:10062000BB0C20E436E042ED61E0809106010E94BF
:10063000AC0764EC70E080E093E00E948B0C60916A
:100640000601709107014AE050E080E093E00E94CB
:10065000820D6CEB70E080E093E00E948B0C4AE02E
:1006600050E062ED70E080E093E00E94820D65EB67
:1006700070E080E093E00E948B0C4AE050E061E083
:1006800070E080E093E00E94820D6EEA70E080E00E
:1006900093E00E94BB0C0E94EC028FEF0E9429089D
:1006A00081E00C94CD00FF920F931F93CF93DF93C3
:1006B00000D01F92CDB7DEB74091960150E069E9B6
:1006C00071E08DE192E00E943502182F6DE172E039
:1006D000FB012FEF3FEF8E2F861B8117C8F481910E
:1006E0002827822F82958227082E86958695802539
:1006F000082E869580258770022E232F86950794D5
:100700008795302D28270694879530252827E3CF15
:10071000232B39F062EA70E080E093E00E94BB0C8A
:100720005AC00E944007811103C00E94BB06F9CF46
:1007300004E08EEFF82EF10E4F2D60E272E0809112
:100740001E020E94830781E00E94900780911E0292
:1007500085FF26C01B8210E06EE571E0CE01019698
:100760000E946205811117C00E94BB068823A1F375
:100770002091EF023091F002232B71F76091A902D2
:1007800070E02091060130910701206C6217730719
:1007900019F711E0E1CF111104C0015069F601C051
:1007A00011E06DE071E080E093E00E94AE0C111169
:1007B00006C06FE970E080E093E00E948B0C68E96E
:1007C00070E080E093E00E948B0C69E771E080E0CC
:1007D00093E00E94AE0C0F900F900F90DF91CF919D
:1007E0001F910F91FF90089584E8EDE1F2E0DF01A1
:1007F0001D928A95E9F780919901813239F46FE071
:1008000071E080E093E00E94CD0C02C00E9453038F
:100810000C94EC02CF92DF92EF92FF921F93CF9352
:10082000DF9380E093E00E94630A892B71F180E0FE
:1008300093E00E947C0A90919601943818F5E0911B
:100840009701F09198018A3069F4108280919701A4
:1008500090919801019690939801809397010E943E
:10086000F403DFCF808380919701909198010196E6
:100870009093980180939701809196018F5F809368
:100880009601CFCF0E94EC02CCCF9AE0C92ED12C9A
:10089000E12CF12CCDE1D2E014E80E94BB068823C4
:1008A00009F4ECC08091EF029091F002892BB1F035
:1008B00080918E0190918F01A0919001B091910152
:1008C0000196A11DB11D80938E0190938F01A0937D
:1008D0009001B09391016DE870E03AC02091A902B7
:1008E0002F7130E080910601909107012817390798
:1008F000B1F08091920190919301A0919401B091F7
:1009000095010196A11DB11D8093920190939301D1
:10091000A0939401B093950169E770E019C08091AC
:10092000A90286FD1AC08091920190919301A09135
:100930009401B09195010196A11DB11D8093920182
:1009400090939301A0939401B093950168E670E0B1
:1009500080E093E00E94BB0CA0CF60918A0170916F
:100960008B0180918C0190918D016F5F7F4F8F4F34
:100970009F4F60938A0170938B0180938C019093B9
:100980008D01A70196010E94CA0D672B682B692B68
:10099000D1F56FE171E080E093E00E94AE0C4091F0
:1009A0008E0150918F0160919001709191012AE028
:1009B00030E080E093E00E949A0D6CE280E093E0EA
:1009C0000E94B00C4091920150919301609194016A
:1009D000709195012AE030E080E093E00E949A0D4A
:1009E0006CE280E093E00E94B00C40918A0150914B
:1009F0008B0160918C0170918D012AE030E080E0E4
:100A000093E00E94A70D81E00E94CD00FE01812F9E
:100A100011928A95E9F74091AA0250E04B5F5F4F2F
:100A200068EA72E08DE192E00E946E016DE172E091
:100A300080E093E00E94CD0C8091A90285FF18C050
:100A40008091A90287FD14C08091A90286FD14C07F
:100A50008091A9028F71806C9091AB029F7140E0F0
:100A600060E070E0892B0E94830781E00E9490077C
:100A700080E00E94CD0011CF80ECEECFDF91CF91CE
:100A80001F91FF90EF90DF90CF9008950F931F93E9
:100A9000CF93DF93EC018B0181E06115710509F4BF
:100AA00080E08A83882349F00E9410099801215030
:100AB0003109260F371F39832883DF91CF911F918A
:100AC0000F910895EF92FF920F931F93CF93DF93AF
:100AD000EC018B018A81882371F0E880F9800E9403
:100AE0001009C701861B970B81362AEE920750F03A
:100AF000F82EF19401C0F12CB801CE010E944605F8
:100B00008F2D01C080E0DF91CF911F910F91FF9059
:100B1000EF9008958627682F62956827062E6695C0
:100B200066956025062E669560256770082E892FCC
:100B3000669507946795902D86270694679590256E
:100B4000862708952CB521602CBD25B141E050E0E9
:100B500060E070E00090080104C0440F551F661F5C
:100B6000771F0A94D2F74095422345B99EBD0DB434
:100B700007FEFDCF2EB530E0322F22278EBD0DB4FB
:100B800007FEFDCF9EB585B141E050E060E070E02A
:100B90000090080104C0440F551F661F771F0A9478
:100BA000D2F7842B85B98CB58E7F8CBDA901492BDA
:100BB000CA010895CF9380E090E00E94A205809141
:100BC000F102853091F580E090EB0E94A205682F3C
:100BD0008091F202811104C09091F502911175C0CB
:100BE000E091F20281E08E0F8093F202F0E0E8558E
:100BF000FD4F60838091EF029091F0020E948A0580
:100C00009093F0028093EF028091AA022091F20269
:100C100090E0049630E0821793070CF461C0809155
:100C2000F202873408F05CC060C08091F10287FF57
:100C30001AC0E091AA028091F10291E0980F90937E
:100C4000F102ED5FE80FF0E0E855FD4FC0818091C3
:100C5000EF029091F0026C2F0E948A059093F002AF
:100C60008093EF022EC08091F102833001F154F4A1
:100C70008823B9F08130F9F48091EF029091F0026D
:100C8000C92F1AC0893059F08A30A9F4C091F502F1
:100C90009091AA028DEF891B8093F1020DC0CDE2E5
:100CA0000BC08091EF029091F002C82F05C08DE03B
:100CB00092E80E94A205CAEA8091F1028F5F8093B8
:100CC000F1028C2F90E098540DC0E091F20281E087
:100CD0008E0F8093F202F0E0E855FD4F908380CFB5
:100CE0008DE092E8CF910C94A205CF91089525B1A3
:100CF00081E090E0A0E0B0E0AC01BD01009008010F
:100D000004C0440F551F661F771F0A94D2F7242B87
:100D100025B924B10090080104C0880F991FAA1FAB
:100D2000BB1F0A94D2F7282B24B961E08AE00E9405
:100D3000040A61E08AE00E94CB0961E08BE00E9436
:100D4000CB0960E08CE00E94CB0961E08DE00E945D
:100D5000CB0980E58CBD8DB581608DBD60E082E002
:100D60000E94CB0961E082E00C94040AE8980E949A
:100D7000A205E89A08958091F102853091F580915D
:100D8000AA022091F20290E0049630E082179307C5
:100D900024F08091F202873420F184E08093F10204
:100DA0008091EF029091F0029093F0028093EF0215
:100DB0008091AA02833430F081E090E09093F002B9
:100DC0008093EF028091A90286FF3EC09091F602C7
:100DD000892F8F718F31C1F18091A90289278F717D
:100DE00099F18091F102843069F58091A302882302
:100DF00051F08093AA021092A9021092A80283E0F7
:100E00008093F20204C01092AA021092F2028FEFB5
:100E10009FEF9093F0028093EF026091F5026623BA
:100E200051F08091EF029091F0020E948A05909318
:100E3000F0028093EF0285E08093F1028DED92E85D
:100E40000E94A20580E008958091EF029091F00247
:100E5000892B49F4E091A102F091A202309719F098
:100E600080E009950BC08FEF9FEFDC018093A40217
:100E70009093A502A093A602B093A70281E00895E3
:100E80008091F102853099F48091F20281110FC0B6
:100E900080E090E00E94B60690FD09C08DE092E8E7
:100EA0000E94B60684E08093F10281E0089580E01C
:100EB000089586FD05C0807E9091F6029F71890F8E
:100EC0008093A902E091A102F091A202309711F063
:100ED00081E009958FEF9FEF9093F0028093EF02EE
:100EE0008091EF029091F0026091F5020E948A05D4
:100EF0009093F0028093EF0286E08093F1028DE3FD
:100F000092E80C94A205CF93C82F4093AA0250E018
:100F10008BEA92E00E94F20D8C2FCF910C9459072E
:100F20009091F1029430B9F08823D1F393B7917F77
:100F3000833021F0823021F42CE003C024E001C092
:100F400020E0922B93BF93B7916093BF889593B79E
:100F50009E7F93BFE5CF0895CF93C62F8093F6026F
:100F60004093F5023093F4022093F3020E94770637
:100F700080E090E00E94A20585E092E80E94A20530
:100F800080E098EB0E94A20582E00E943A0A892B39
:100F900019F480E090E0F6CF20E1C29FC001112457
:100FA000876C90680E94A2058091F3029091F402F0
:100FB00090560E94A20586E096EC0E94A20582EA65
:100FC00094E90E94A2058CEA92EC0E94A205C091CD
:100FD000F502CC2341F083E89AEC0E94A2058C2F05
:100FE00090E09E6C06C08BE89AEC0E94A2058DE210
:100FF0009EEC0E94A20583E894EC0E94A20580E585
:1010000098E90E94A20587E79CEC0E94A20580E077
:1010100090EE0E94A20580E098EC0E94A20589E46F
:1010200090EC0E94A20584E08093F1028091F60288
:101030008F7141F040E050E06AED75E080E00E9481
:10104000460803C080E00E9466088091F602CF91B6
:101050000895CF93C82F87FF03C08DE092E80EC09C
:10106000992787FD9095956E0E94B60685E092E8D7
:101070000E94B606CC2321F087E092E80E94B606D3
:1010800084E08093F102CF91089508958230E8F4CE
:10109000E82FF0E0EE0FFF1FE75FFE4F71836083E4
:1010A000813041F0809169008C7F842B80936900AE
:1010B000E89A089580916900440F551F440F551F09
:1010C000837F842B80936900E99A0895823078F4B5
:1010D000813011F0E89801C0E998E82FF0E0EE0FB8
:1010E000FF1FE75FFE4F85E498E0918380830895BA
:1010F0001F920F920FB60F9211242F933F934F938D
:101100005F936F937F938F939F93AF93BF93EF936F
:10111000FF93E0910901F0910A010995FF91EF9188
:10112000BF91AF919F918F917F916F915F914F91FF
:101130003F912F910F900FBE0F901F9018951F9207
:101140000F920FB60F9211242F933F934F935F93FB
:101150006F937F938F939F93AF93BF93EF93FF937F
:10116000E0910B01F0910C010995FF91EF91BF9176
:10117000AF919F918F917F916F915F914F913F912F
:101180002F910F900FBE0F901F9018951F920F92E6
:101190000FB60F9211242F933F938F939F93AF938A
:1011A000BF938091F8029091F902A091FA02B09158
:1011B000FB023091F70223E0230F2D3720F4019634
:1011C000A11DB11D05C026E8230F0296A11DB11D6A
:1011D0002093F7028093F8029093F902A093FA0209
:1011E000B093FB028091FC029091FD02A091FE025F
:1011F000B091FF020196A11DB11D8093FC02909356
:10120000FD02A093FE02B093FF02BF91AF919F91A8
:101210008F913F912F910F900FBE0F901F901895B7
:101220002FB7F8946091F8027091F9028091FA0258
:101230009091FB022FBF08953FB7F8948091FC0274
:101240009091FD02A091FE02B091FF0226B5A89BED
:1012500005C02F3F19F00196A11DB11D3FBF6627A4
:10126000782F892F9A2F620F711D811D911D42E0E9
:10127000660F771F881F991F4A95D1F70895CF925F
:10128000DF92EF92FF92CF93DF936B017C010E947C
:101290001C09EB01C114D104E104F10489F00E949E
:1012A000C90D0E941C096C1B7D0B683E734090F3B6
:1012B00081E0C81AD108E108F108C851DC4FEACF33
:1012C000DF91CF91FF90EF90DF90CF9008957894C9
:1012D00084B5826084BD84B5816084BD85B582603B
:1012E00085BD85B5816085BDEEE6F0E080818160D9
:1012F0008083E1E8F0E010828081826080838081D9
:1013000081608083E0E8F0E0808181608083E1EBB0
:10131000F0E0808184608083E0EBF0E08081816098
:101320008083EAE7F0E0808184608083808182604E
:101330008083808181608083808180688083109237
:10134000C1000895833081F028F4813099F0823013
:10135000A1F008958730A9F08830B9F08430D1F435
:10136000809180008F7D03C0809180008F77809373
:101370008000089584B58F7702C084B58F7D84BDC9
:1013800008958091B0008F7703C08091B0008F7D69
:101390008093B0000895CF93DF9390E0FC01E35079
:1013A000FF4F2491FC01EF5EFE4F8491882349F1A9
:1013B00090E0880F991FFC01E75CFE4FA591B49166
:1013C000815D9E4FFC01C591D4919FB7611108C00A
:1013D000F8948C91209582238C93888182230AC073
:1013E000623051F4F8948C91322F309583238C9392
:1013F0008881822B888304C0F8948C91822B8C93F3
:101400009FBFDF91CF9108950F931F93CF93DF93E9
:101410001F92CDB7DEB7282F30E0F901E751FF4F1B
:101420008491F901E350FF4F1491F901EF5EFE4FF3
:1014300004910023C9F0882321F069830E94A20946
:101440006981E02FF0E0EE0FFF1FE15DFE4FA591F7
:10145000B4919FB7F8948C91611103C010958123CA
:1014600001C0812B8C939FBF0F90DF91CF911F9173
:101470000F910895CF93DF93282F30E0F901E751C2
:10148000FF4F8491F901E350FF4FD491F901EF5ED2
:10149000FE4FC491CC2391F081110E94A209EC2F40
:1014A000F0E0EE0FFF1FEB5DFE4FA591B4912C9184
:1014B0002D2381E090E021F480E002C080E090E004
:1014C000DF91CF910895FC01818D228D90E0805CA9
:1014D0009F4F821B91098F7399270895FC01918D6D
:1014E000828D981731F0828DE80FF11D858D90E087
:1014F00008958FEF9FEF0895FC01918D828D9817CD
:1015000061F0828DDF01A80FB11D5D968C91928DE7
:101510009F5F9F73928F90E008958FEF9FEF0895E4
:1015200080E09CE0892B49F080E090E0892B29F055
:101530000E94000C81110C9400000895FC01848D20
:10154000DF01A80FB11DA35ABF4F2C91848D90E0ED
:1015500001968F739927848FA689B7892C93A089C8
:10156000B1898C9180648C93938D848D981306C07F
:101570000288F389E02D80818F7D80830895CF9349
:10158000DF93EC01888D8823C9F0EA89FB8980818B
:1015900085FD05C0A889B9898C9186FD0FC00FB65D
:1015A00007FCF5CF808185FFF2CFA889B9898C919E
:1015B00085FFEDCFCE010E949E0AE7CFDF91CF914C
:1015C0000895CF92DF92FF920F931F93CF93DF93F3
:1015D0001F92CDB7DEB76C0181E0D60158968C938F
:1015E00058975B969C915B975C968C915C9798134F
:1015F00007C05096ED91FC915197808185FD2EC0DA
:10160000F601038D10E00F5F1F4F0F731127F02EAF
:10161000F601848DF81211C00FB607FCF9CFD60180
:101620005096ED91FC915197808185FFF1CFC601D5
:1016300069830E949E0A6981EBCF838DE80FF11DBB
:10164000E35AFF4F6083D6015B960C935B975296EB
:10165000ED91FC915397808180620CC0D601569623
:10166000ED91FC91579760835096ED91FC915197C5
:1016700080818064808381E090E00F90DF91CF9142
:101680001F910F91FF90DF90CF900895BF92CF925E
:10169000DF92EF92FF92CF93DF93EC016A017B011F
:1016A000B22EE889F98982E08083411581EE5807DE
:1016B00061057105A1F060E079E08DE390E0A7019C
:1016C00096010E94CA0D21503109410951095695D0
:1016D000479537952795211580E1380798F0E889D7
:1016E000F989108260E874E88EE190E0A701960124
:1016F0000E94CA0D2150310941095109569547955B
:1017000037952795EC85FD853083EE85FF85208311
:10171000188EEC89FD89B082EA89FB89808180611D
:101720008083EA89FB89808188608083EA89FB89DC
:10173000808180688083EA89FB8980818F7D8083B6
:10174000DF91CF91FF90EF90DF90CF90BF90089501
:101750001F920F920FB60F9211242F938F939F9386
:10176000EF93FF93E0911003F09111038081E091DA
:101770001603F091170382FD12C090818091190326
:101780008F5F8F7320911A03821751F0E091190334
:10179000F0E0E050FD4F958F8093190301C08081E8
:1017A000FF91EF919F918F912F910F900FBE0F900E
:1017B0001F9018951F920F920FB60F9211242F931E
:1017C0003F934F935F936F937F938F939F93AF93C9
:1017D000BF93EF93FF9380E093E00E949E0AFF91F6
:1017E000EF91BF91AF919F918F917F916F915F9199
:1017F0004F913F912F910F900FBE0F901F90189512
:1018000080E093E00E94630A21E0892B09F420E044
:10181000822F0895109203031092020388EE93E042
:10182000A0E0B0E08093040390930503A093060327
:10183000B09307038CE691E090930103809300033B
:1018400085EC90E090930D0380930C0384EC90E082
:1018500090930F0380930E0380EC90E0909311031C
:101860008093100381EC90E0909313038093120314
:1018700082EC90E0909315038093140386EC90E043
:1018800090931703809316031092190310921A0372
:1018900010921B0310921C030895CF92DF92EF92D7
:1018A000FF920F931F93CF93DF937C016A01EB01AB
:1018B00000E010E00C151D0571F06991D701ED9164
:1018C000FC910190F081E02DC7010995892B19F059
:1018D0000F5F1F4FEFCFC801DF91CF911F910F9185
:1018E000FF90EF90DF90CF9008956115710581F022
:1018F000DB010D900020E9F7AD0141505109461B75
:10190000570BDC01ED91FC910280F381E02D0994ED
:1019100080E090E00895EF92FF920F931F93CF9392
:10192000DF938C017B01C0E0D0E0F701EC0FFD1FDD
:101930006491662359F0F801A081B181ED91FC9189
:10194000C8010995892B11F02196EFCFCE01DF91C7
:10195000CF911F910F91FF90EF9008950C94750C0B
:10196000DC01ED91FC910190F081E02D099468E794
:1019700071E00C94750C0F931F93CF93DF93EC01E0
:101980000E948B0C8C01CE010E94B70C800F911F1E
:10199000DF91CF911F910F9108950F931F93CF93D4
:1019A000DF93EC010E94750C8C01CE010E94B70CF4
:1019B000800F911FDF91CF911F910F9108958F920A
:1019C0009F92AF92BF92CF92DF92EF92FF920F93CE
:1019D0001F93CF93DF93CDB7DEB7A1970FB6F894DF
:1019E000DEBF0FBECDBF7C01C42EE52FCB01D22EB2
:1019F00019A221E02D1510F02AE0D22E8E010F5DE4
:101A00001F4F8D2C912CA12CB12C6C2D7E2FA5015C
:101A100094010E94CA0D8C2DD29E80191124015070
:101A200011098A3014F4805D01C0895CF80180835B
:101A3000211531054105510521F0C22EE32FCA01C0
:101A4000E4CFB801C7010E94750CA1960FB6F894B7
:101A5000DEBF0FBECDBFDF91CF911F910F91FF90E1
:101A6000EF90DF90CF90BF90AF909F908F900895B0
:101A7000CF92DF92EF92FF920F931F93CF93DF935A
:101A8000EC016A017B012115310579F4E881F981C6
:101A90000190F081E02D642FDF91CF911F910F9184
:101AA000FF90EF90DF90CF9009942A303105E9F450
:101AB00077FF1AC06DE20E94B00C8C0144275527B5
:101AC000BA014C195D096E097F092AE0CE010E9416
:101AD000DF0C800F911FDF91CF911F910F91FF902D
:101AE000EF90DF90CF9008952AE0B701A601CE01D4
:101AF000DF91CF911F910F91FF90EF90DF90CF90EA
:101B00000C94DF0C0F931F93CF93DF93EC019A019A
:101B1000AB01662757FD6095762F0E94380D8C012A
:101B2000CE010E94B70C800F911FDF91CF911F91C2
:101B30000F9108952115310541F4DC01ED91FC91DF
:101B40000190F081E02D642F09940C94DF0C0F9329
:101B50001F93CF93DF93EC010E949A0D8C01CE016D
:101B60000E94B70C800F911FDF91CF911F910F91B1
:101B7000089508950E9467090E94B90D0E94F60217
:101B8000C0E9DAE00E940A042097E1F30E94900A7B
:101B9000F9CF0895A1E21A2EAA1BBB1BFD010DC0AF
:101BA000AA1FBB1FEE1FFF1FA217B307E407F5070D
:101BB00020F0A21BB30BE40BF50B661F771F881FE9
:101BC000991F1A9469F760957095809590959B017F
:101BD000AC01BD01CF010895EE0FFF1F0590F491F8
:101BE000E02D0994FB01DC0102C001900D924150EF
:0A1BF0005040D8F70895F894FFCF95
:101BFA0000009D0380001E000245084508230023BB
:101C0A004E6F74496D706C656D656E746564002302
:101C1A0053544154533A0041424344454647484984
:101C2A004A4B4C4D4E4F5051525354555657585992
:101C3A005A6162636465666768696A6B6C6D6E6F28
:101C4A00707172737475767778797A303132333489
:101C5A0035363738392B2F0000000000E10A4D0CC9
:101C6A00630A7C0A6E0ABF0A0D0A006E616E006979
:0A1C7A006E66006F7666002E000013
:00000001FF
